:020000040800F2
:1000000000500020652100081109000813090008AC
:100010001509000817090008190900080000000068
:100020000000000000000000000000001B090008A4
:100030001D090008000000001F0900082109000830
:10004000AD210008AD210008AD210008AD21000858
:10005000AD210008AD210008AD210008AD21000848
:10006000AD210008AD210008AD210008AD21000838
:10007000AD210008AD210008AD210008AD21000828
:10008000AD210008AD210008AD210008AD21000818
:10009000AD210008AD210008AD210008AD21000808
:1000A000AD210008AD210008AD210008AD210008F8
:1000B000AD210008AD210008AD210008AD210008E8
:1000C000AD210008AD210008AD210008AD210008D8
:1000D000AD210008AD210008AD210008AD210008C8
:1000E000AD210008AD210008AD210008000000008E
:1000F0000000000000000000000000000000000000
:0C01000000000000000000005FF808F1A3
:10010C0010B5054C237833B9044B13B10448AFF345
:10011C0000800123237010BD540400200000000057
:10012C00D822000808B5034B1BB103490348AFF3B1
:10013C00008008BD0000000058040020D8220008F0
:10014C0010B5C0F57F44FA34A4B2094803685C6268
:10015C0001F066FD4FF6F9739C4204D8044B1B6802
:10016C005C6AA4B2F6E7024801F088FD10BD00BF3E
:10017C00CC04002000B585B020230093012301930B
:10018C00032303936946034800F062FD05B05DF854
:10019C0004FB00BF0008014000B585B0202300938C
:1001AC0000230193032303936946034800F050FD99
:1001BC0005B05DF804FB00BF00080140F8B500264F
:1001CC0035461FE02820FFF7BBFF2021174800F021
:1001DC004FFE0746012800D0002700242021134899
:1001EC0000F046FE012807D1632C05D80120FFF74B
:1001FC00A7FF0134E4B2F1E76D00EDB23D43EDB27F
:10020C000136F6B2072E0ED800242021074800F044
:10021C002FFE0028D6D1632CD4D80120FFF790FFF5
:10022C000134E4B2F1E72846F8BD00BF00080140F4
:10023C0070B5FFF79FFF2A4C00222021204600F0CA
:10024C001EFE122000F094FC01222021204600F01A
:10025C0016FE1420FFF774FFFFF79EFF1420FFF724
:10026C006FFF2021204600F003FE48BB06460546E2
:10027C0020211B4800F0FCFD044638B9632D06D83C
:10028C000120FFF75DFF0135EDB2F1E73446202187
:10029C00134800F0EDFD01280DD1632C0BD8012083
:1002AC00FFF74EFF0134E4B2F1E7FFF787FF0D4B88
:1002BC0098550136F6B2042EF7D93220FFF740FFDD
:1002CC00084A137851780B4491780B44D1780B443D
:1002DC0012799A4201D0002070BD0120FCE700BFCA
:1002EC00000801407004002084B0134B9A6942F05E
:1002FC0010029A619A6902F010020092009A9A69AF
:10030C0042F020029A619A6902F020020192019A4D
:10031C009A6942F004029A619A6902F0040202920C
:10032C00029A9A6942F008029A619B6903F00803E9
:10033C000393039B04B070470010024008B50B48B0
:10034C000B4B03600B4B436000238360C3604FF483
:10035C008042026143618361C361036200F0FEFE6F
:10036C0000B908BD00F0C6F8FBE700BF7804002018
:10037C0000540040A086010010B586B00023029303
:10038C000393049305930268114B9A4201D006B073
:10039C0010BD104CA36943F00803A361A36903F0DB
:1003AC0008030093009BC02302931223039303239F
:1003BC00059302A9084800F04BFCE36943F40013D1
:1003CC00E361E36903F400130193019BDFE700BFD2
:1003DC000054004000100240000C01400346002075
:1003EC002BB1034AA2FB0323DB080130F8E770476B
:1003FC00CDCCCCCCF0B583B0FFF71AFF20B93220AE
:10040C0000F0B6FB03B0F0BD08220021084600F056
:10041C002FFA0A220021102000F02AFA10233A2287
:10042C000021202000F092F9314E34782046FFF75D
:10043C00D5FF10250095C3B222460021282000F0DC
:10044C00CDF93078FFF7CAFF0530C0002B462522C6
:10045C00002100F0F80000F079F9092202210020B7
:10046C0000F006FA0A220221284600F001FA2B4677
:10047C003A220221202000F069F9B4782046FFF7D7
:10048C00ADFF0095C3B222460221282000F0A6F948
:10049C00B078FFF7A3FF0530C0002B462E220221B7
:1004AC0000F0F80000F052F9B078FFF797FF841DC8
:1004BC00F7783846FFF792FFE4000095C3B23A464E
:1004CC00022104F0F80000F089F9B078FFF786FFFC
:1004DC000446F078FFF782FF20440630C0002B461C
:1004EC004322022100F0F80000F030F987E700BF4A
:1004FC007004002072B6FEE700B591B0002309939A
:10050C000B930C9301930293039304930593012192
:10051C0006914FF48032079208930A9102230D93AF
:10052C000E924FF4E0130F9306A800F0BDFF80B9B4
:10053C000F23019302210291002303934FF4806255
:10054C000492059301A801F0EDF920B911B05DF802
:10055C0004FBFFF7CFFFFFF7CDFF000010B582B013
:10056C0000F0E2FAFFF7C8FFFFF7BEFEFFF7E6FE6A
:10057C0000F0D6F900F05AFA00F0A8F800F0ADF847
:10058C0000221146202000F073F9012200213020B6
:10059C0000F06EF902220021402000F069F90322DC
:1005AC000021502000F064F9102300930A23214A03
:1005BC000221182000F012F904221146202000F02C
:1005CC0057F905220421302000F052F906220421AB
:1005DC00402000F04DF907220421502000F048F98A
:1005EC004FF47A7000F0C4FA00F077F8002112484A
:1005FC0001F010FD4FF4FA7418E0013CA4B20E4B5C
:10060C001B685C63052000F0B3FA002CF5D107E001
:10061C000134A4B2084B1B685C63052000F0A8FAF7
:10062C00B4F5FA7FF4D3642000F0A2FAFFF7E2FEEF
:10063C00EBE700BF2675F7B91405002010B584B0A0
:10064C0000240EE04FF48073029301230193074AB8
:10065C002244009200227821054800F05DFE01340E
:10066C00E4B21A2CEED904B010BD00BF000000207B
:10067C007804002000B587B08DF817004FF4807314
:10068C000293012301930DF11702009200227821AD
:10069C00024800F041FE07B05DF804FB780400202E
:1006AC0000B587B08DF817004FF4807302930123C7
:1006BC0001930DF11702009240227821024800F0BC
:1006CC002BFE07B05DF804FB7804002008B5C820A9
:1006DC0000F04EFAFFF7B2FF08BD38B5002501E077
:1006EC000135EDB2072D14D8A5F15000C0B2FFF7BB
:1006FC00C1FF0020FFF7BEFF1020FFF7BBFF002457
:10070C0014F0800FECD10020FFF7CAFF0134E4B2E3
:10071C00F6E738BD10B50446A1F15000C0B2FFF7A2
:10072C00A9FF200940F01000FFF7A4FF04F00F0010
:10073C00FFF7A0FF10BD024601204B1EDBB219B122
:10074C0002FB00F01946F8E770470000F8B50746C1
:10075C000E46203AD5B210F0800F13D1102B15D0C5
:10076C0031463846FFF7D6FF0024052C30D805EB70
:10077C004503184A02EB4303185DFFF791FF013460
:10078C00E4B2F2E70236F6B20027E7E73146384624
:10079C00FFF7C0FF002407E004EB05130E4AD05C02
:1007AC00FFF77EFF0134E4B2072CF5D9711CC9B2F6
:1007BC003846FFF7AFFF002408E004EB05130833BD
:1007CC00054AD05CFFF76CFF0134E4B2072CF4D976
:1007DC00F8BD00BFF0220008182500082DE9F84FDD
:1007EC0083468A4691461E469DF828704FF00008B5
:1007FC00454619E0780800FB05F0C0B258443B466A
:10080C0020225146C0B2FFF7A1FF0BE0780800FB95
:10081C0005F0C0B2303458443B46E2B25146C0B247
:10082C00FFF794FF0135EDB2B5421CD2711BC9B272
:10083C000139C9B20A20FFF77EFFB9FBF0F00B4C6F
:10084C00A4FB0034E40804EB8404A0EB4404E4B2FD
:10085C00B8F1000FDAD1731E9D42D7DA002CC9D043
:10086C004FF00108D2E7BDE8F88F00BFCDCCCCCC5F
:10087C00F8B507460E461546FFF74CFF00240F2C23
:10088C0008D80E4B03EB8513185DFFF709FF0134F5
:10089C00E4B2F4E7711CC9B23846FFF73BFF002401
:1008AC000F2C0AD86B00591C044B03EB4113185D39
:1008BC00FFF7F6FE0134E4B2F2E7F8BDF82A0008BF
:1008CC0082B00E4B9A6942F001029A619A6902F069
:1008DC0001020092009ADA6942F08052DA61DB6917
:1008EC0003F080530193019B054A536823F0E063A6
:1008FC0043F00073536002B0704700BF0010024019
:10090C0000000140FEE7FEE7FEE7FEE7FEE770476A
:10091C007047704708B500F019F908BD7047000022
:10092C0000B587B0002302930393049305930093BF
:10093C0001931548154A02604722426083604FF6C6
:10094C00FF72C26003614361836101F0E7F990B902
:10095C004FF48053029302A90B4801F0DCFA68B9FA
:10096C000023009301936946074801F0C1FB40B98D
:10097C0007B05DF804FBFFF7BDFDE9E7FFF7BAFD33
:10098C00EEE7FFF7B7FDF3E7CC040020002C0140A5
:10099C0082B003680E4A934204D00E4A93420CD0A4
:1009AC0002B070470C4B9A6942F400629A619B69E1
:1009BC0003F400630093009BF2E7074BDA6942F003
:1009CC000202DA61DB6903F002030193019BE7E7A2
:1009DC00002C0140000400400010024000B587B01C
:1009EC000023029303930493059302680D4B9A42E0
:1009FC0002D007B05DF804FB03F503339A6942F0AB
:100A0C0004029A619B6903F004030193019B402348
:100A1C00029302230393059302A9034800F018F9EB
:100A2C00E7E700BF000400400008014000B58FB0AC
:100A3C0000230A930B930C930D9308930993019342
:100A4C000293039304930593069307932148224A38
:100A5C00026047224260836040F2F312C26003617D
:100A6C00836101F05BF928BB4FF480530A930AA908
:100A7C00184801F050FA00BB164801F07BF9F8B9A0
:100A8C0000230893099308A9124801F031FBD0B94F
:100A9C00602301930022029202230393059201A981
:100AAC000C4801F0C5F988B90A48FFF797FF0FB059
:100ABC005DF804FBFFF71EFDD6E7FFF71BFDDBE738
:100ACC00FFF718FDDCE7FFF715FDE1E7FFF712FD77
:100ADC00EAE700BF140500200004004010B50446EE
:100AEC000E4B18784FF47A73B3FBF0F30C4A106882
:100AFC00B0FBF3F000F096F868B90F2C01D9012087
:100B0C000AE0002221464FF0FF3000F057F8054B69
:100B1C001C60002000E0012010BD00BF2000002060
:100B2C001C0000202400002008B5074A136843F07D
:100B3C0010031360032000F02FF80020FFF7CEFF06
:100B4C00FFF7BEFE002008BD00200240034A1168DA
:100B5C00034B1B780B441360704700BF5C050020EF
:100B6C0020000020014B1868704700BF5C05002076
:100B7C0038B50446FFF7F6FF0546B4F1FF3F02D047
:100B8C00044B1B781C44FFF7EDFF401BA042FAD32B
:100B9C0038BD00BF20000020074AD36823F4E0636F
:100BAC001B041B0C000200F4E060034343F0BF6322
:100BBC0043F40033D360704700ED00E030B4174BC2
:100BCC00DB68C3F30223C3F10704042C28BF0424FD
:100BDC001D1D062D18D9033B4FF0FF3505FA04F403
:100BEC0021EA0401994005FA03F322EA03031943AD
:100BFC0000280BDB0901C9B200F1604000F561402F
:100C0C0080F8001330BC70470023E5E700F00F00BC
:100C1C000901C9B2024B1954F4E700BF00ED00E022
:100C2C0014ED00E00138B0F1807F0AD2064B586019
:100C3C00064AF02182F823100020986007221A60DF
:100C4C0070470120704700BF10E000E000ED00E0AD
:100C5C00F0B482B000252C46A3E07F4FBB4210D0ED
:100C6C0007D97E4FBB420CD007F58037BB4208D06A
:100C7C0013E0A7F58017BB4203D007F57027BB42E2
:100C8C0007D18B68002B58D0012B51D0426108251D
:100C9C0003E0A7F58017BB42F3D0FF2E4FD8844654
:100CAC00FF2E4FD8A200DCF800300F27974023EA24
:100CBC00070305FA02F21343CCF800304B6813F02B
:100CCC00805F6DD0664B9A6942F001029A619B6914
:100CDC0003F001030193019BA208971C614B53F88D
:100CEC00273004F00307BF004FF00F0C0CFA07FC81
:100CFC0023EA0C0C5C4B98422AD003F58063984293
:100D0C0000F08A8003F58063984200F0878003F539
:100D1C00806398421AD004231BE0CD68BDE7CD68F0
:100D2C000435BAE7CD680835B7E7CD680C35B4E7BC
:100D3C0002610825B1E70025AFE70425ADE700F116
:100D4C00040CADE7A4F108029200ACE7032300E029
:100D5C000023BB4043EA0C030232424F47F82230D7
:100D6C004B6813F4803F5BD0404A136833431360E5
:100D7C004B6813F4003F59D03C4A536833435360DB
:100D8C004B6813F4801F57D0384A936833439360F1
:100D9C004B6813F4001F55D0344AD3681E43D660F9
:100DAC0001340B6833FA04F252D00122A24003EA58
:100DBC00020632EA0303F3D14B68122B3FF64DAF18
:100DCC00122B3FF66AAF01A757F823F08F0C0008DF
:100DDC00270D0008310D0008430D0008A70C000872
:100DEC00A70C0008A70C0008A70C0008A70C00080B
:100DFC00A70C0008A70C0008A70C0008A70C0008FB
:100E0C00A70C0008A70C0008A70C0008A70C0008EA
:100E1C002B0D0008370D000801239AE7022398E7F1
:100E2C00124A136823EA06031360A1E70F4A5368BA
:100E3C0023EA06035360A3E70C4A936823EA0603EC
:100E4C009360A5E7094AD36823EA0606D660A7E7AC
:100E5C0002B0F0BC704700BF00002210000031103F
:100E6C000010024000000140000801400004014055
:100E7C008368194201D001207047002070470AB1E5
:100E8C000161704709040161704703685A6912F4E3
:100E9C00806F01D1002070476FF480625A6100238B
:100EAC000363202280F83D2080F83E30026C42F033
:100EBC000402026480F83C30012070472DE9F041B7
:100ECC0007460D4690461E4622E0FFF74BFE069B5A
:100EDC00C01AB04200D8DEB900233B63202287F849
:100EEC003D2087F83E303A6C42F020023A6487F895
:100EFC003C3001201AE03B689C6925EA0404A4B24A
:100F0C00B4FA84F46409A0450FD1B6F1FF3FDCD1EB
:100F1C00C5F30743012BEED13B685C6925EA040459
:100F2C00A4B2B4FA84F46409EDE70020BDE8F081C2
:100F3C002DE9F04105460E46174698463DE01A68E5
:100F4C0042F400721A602B686FF480625A610023BD
:100F5C002B63202285F83D2085F83E302A6C42F028
:100F6C0004022A6485F83C30012034E0FFF7FAFDD6
:100F7C00A0EB0800B84200D8FFB900232B63202255
:100F8C0085F83D2085F83E302A6C42F020022A6418
:100F9C0085F83C3001201EE02B689C6926EA04048D
:100FAC00A4B2003C18BF0124A4B12B685A6912F4F6
:100FBC00806FC4D1B7F1FF3FD8D1C6F30743012BE3
:100FCC00EAD12B685C6926EA0404A4B2003C18BF81
:100FDC000124E9E70020BDE8F08170B504460D4618
:100FEC00164623685B6913F0800F1CD12046FFF76F
:100FFC004CFFD0B9B5F1FF3FF3D0FFF7B3FD801B29
:10100C00A84201D8002DECD100232363202284F8C0
:10101C003D2084F83E30226C42F02002226484F899
:10102C003C30012000E0002070BD0120FCE70000F6
:10103C002DE9F04385B004460D4691461F46DDF878
:10104C0030800D9E0368196841F480711960009618
:10105C00434600224FF00111FFF730FF60B92368BF
:10106C0005F0FE051D613346424626492046FFF732
:10107C005FFF68B1012008E023681B6813F4807FD0
:10108C0002D04FF400732364032005B0BDE8F08355
:10109C000023039323685A6903929B690393039B70
:1010AC00324641462046FFF798FF30B9012F0FD149
:1010BC0023685FFA89F61E61E7E7236C042B01D0E5
:1010CC000120E2E72268136843F400731360F7E72A
:1010DC0023684FEA19221A61324641462046FFF72F
:1010EC007CFF20B923685FFA89F61E61CDE7236C7B
:1010FC00042B01D00120C8E72268136843F4007365
:10110C001360F7E70200010070B504460D46164661
:10111C0023685B6913F0040F1CD12046FFF7B5FE62
:10112C00D0B9B5F1FF3FF3D0FFF71CFD801BA842EF
:10113C0001D8002DECD100232363202284F83D201C
:10114C0084F83E30226C42F02002226484F83C3059
:10115C00012000E0002070BD0120FCE7002800F019
:10116C00CC80F8B5044690F83D30002B77D0242382
:10117C0084F83D302268136823F001031360226861
:10118C00136843F4004313602268136823F400438C
:10119C00136000F083FC62685A4B9A4264D85A4B35
:1011AC0098428CBF00230123002B40F0A880574DA0
:1011BC00A5FB0035AF0C2668716821F03F0141EAB0
:1011CC009541716021680B6A23F03F0365684D4AB5
:1011DC0095424FD87A1C13430B622568E96921F4B8
:1011EC004F4121F0FF016368464A93424CD80138C5
:1011FC005B00B0FBF3F0013040F6FC73184278D082
:10120C00C0F30B030B43EB6121680B6823F0C003A5
:10121C00E269206A024313430B6021688B6823F454
:10122C00034323F0FF032269E068024313438B60FE
:10123C002168CB6823F0FF036269A0690243134362
:10124C00CB602268136843F0010313600020206414
:10125C00202384F83D30206384F83E00F8BD80F8EC
:10126C003C30FFF789F882E7294B98428CBF00236A
:10127C00012399E74FF4967202FB07F2254DA5FB6B
:10128C00025292090132A6E7A268BAB9461E03EBD4
:10129C004307B6FBF7F60136C6F30B06B6FA86F62D
:1012AC00760946BBC2B9421E03EB4303B2FBF3F211
:1012BC000132C2F30B0242F40043A3E7461E03EBD8
:1012CC00830707EB8707B6FBF7F60136C6F30B0669
:1012DC00B6FA86F67609E4E7421E03EB830303EBCA
:1012EC008303B2FBF3F20132C2F30B0242F440432C
:1012FC0088E7042386E7012384E701207047012057
:10130C00ACE700BFA08601007F841E0083DE1B4378
:10131C00FF083D00D34D62102DE9F04383B0044625
:10132C000F46904699460C9EFFF71CFC054694F818
:10133C003D00C0B2202803D0022003B0BDE8F083EA
:10134C000095192301224B492046FFF7B7FD0028D1
:10135C0040F0898094F83C30012B00F0868001230A
:10136C0084F83C3023681A6812F0010F03D11A6814
:10137C0042F001021A602268136823F400631360C0
:10138C00212384F83D30402384F83E30002323642D
:10139C000A9B6362BDF82C306385638D2385364BC5
:1013AC00E362019500964B46424639462046FFF7CC
:1013BC003FFE00285BD1238D002B35D02A463146C9
:1013CC002046FFF70AFE20BB626A236812781A6176
:1013DC00616A4B1C6362228D013A92B22285638D45
:1013EC009BB2013B9BB263852368586910F0040FD4
:1013FC00E1D0002ADFD04A781A61636A0133636254
:10140C00238D013B2385638D9BB2013B9BB263858E
:10141C00D1E7236C042B01D001208EE722681368DE
:10142C0043F400731360F7E72A4631462046FFF772
:10143C006BFE50B1236C042B01D001207DE7226898
:10144C00136843F400731360F7E72268136843F4DE
:10145C0000731360202384F83D30002384F83E3061
:10146C0084F83C3069E7022067E7022065E7012039
:10147C0063E700BF020010000000FFFF82B0084BC2
:10148C001B68084AA2FB03235B0A00FB03F30193CE
:10149C0000BF019B5A1E0192002BF9D102B070477C
:1014AC001C000020D34D6210002800F0F18170B5B3
:1014BC0082B00446036813F0010F2CD0AA4B5B6872
:1014CC0003F00C03042B1DD0A74B5B6803F00C033B
:1014DC00082B12D06368B3F5803F41D0002B55D157
:1014EC0003F1804303F504331A6822F480321A6046
:1014FC001A6822F480221A6037E09B4B5B6813F465
:10150C00803FE7D0984B1B6813F4003F03D063680F
:10151C00002B00F0BF81236813F0020F75D0924BA3
:10152C005B6813F00C0F5FD08F4B5B6803F00C0300
:10153C00082B54D02369002B00F089808B4B01229F
:10154C001A60FFF70FFB0546874B1B6813F0020F61
:10155C0074D1FFF707FB401B0228F5D903209EE14D
:10156C00814A136843F480331360636843B3FFF715
:10157C00F9FA05467C4B1B6813F4003FCBD1FFF7FF
:10158C00F1FA401B6428F5D9032088E1B3F5A02FAC
:10159C0009D0754B1A6822F480321A601A6822F44A
:1015AC0080221A60E1E703F18043A3F53C331A680B
:1015BC0042F480221A601A6842F480321A60D4E72E
:1015CC00FFF7D0FA0546684B1B6813F4003FA2D016
:1015DC00FFF7C8FA401B6428F5D903205FE1624B82
:1015EC005B6813F4803FA5D15F4B1B6813F0020FAF
:1015FC0003D02369012B40F04F815B4A136823F021
:10160C00F803616943EAC1031360236813F0080F00
:10161C0032D0A369002B45D0554B01221A60FFF73D
:10162C00A1FA0546504B5B6A13F0020F21D1FFF76C
:10163C0099FA401B0228F5D9032030E14A4A136875
:10164C0023F0F803616943EAC1031360DDE7474BFC
:10165C0000221A60FFF786FA0546434B1B6813F00D
:10166C00020FD2D0FFF77EFA401B0228F5D90320D7
:10167C0015E10120FFF702FF236813F0040F00F0BF
:10168C009780394BDB6913F0805F1DD1364BDA69DB
:10169C0042F08052DA61DB6903F080530193019BC5
:1016AC00012512E0324B00221A60FFF75BFA054667
:1016BC002D4B5B6A13F0020FDED0FFF753FA401B81
:1016CC000228F5D90320EAE000252A4B1B6813F405
:1016DC00807F11D0E368012B22D0002B38D103F18D
:1016EC00804303F504331A6A22F001021A621A6A63
:1016FC0022F004021A6218E01E4A136843F4807345
:10170C001360FFF72FFA06461A4B1B6813F4807F01
:10171C00E0D1FFF727FA801B6428F5D90320BEE03F
:10172C00114A136A43F001031362E36873B3FFF7C2
:10173C0019FA06460C4B1B6A13F0020F37D1FFF750
:10174C0011FA801B41F288339842F3D90320A6E0AA
:10175C00052B11D0044B1A6A22F001021A621A6A84
:10176C0022F004021A62E0E700100240000042423C
:10177C0080044242007000404D4B1A6A42F0040251
:10178C001A621A6A42F001021A62CEE7FFF7EAF90E
:10179C000646474B1B6A13F0020F08D0FFF7E2F91D
:1017AC00801B41F288339842F3D9032077E0E5B9E6
:1017BC00E369002B72D03E4A526802F00C02082AF0
:1017CC0056D0022B17D03B4B00221A60FFF7CAF9F8
:1017DC000446374B1B6813F0007F47D0FFF7C2F964
:1017EC00001B0228F5D9032059E0314AD36923F0B4
:1017FC008053D361DCE72F4B00221A60FFF7B2F95C
:10180C0005462B4B1B6813F0007F06D0FFF7AAF997
:10181C00401B0228F5D9032041E0236AB3F5803F31
:10182C001AD023494B6823F47413226A606A02436A
:10183C0013434B601F4B01221A60FFF793F90446C8
:10184C001B4B1B6813F0007F0ED1FFF78BF9001BAD
:10185C000228F5D9032022E0154A536823F40033FB
:10186C00A1680B435360DCE7002018E0002016E071
:10187C00012B16D00E4B5B6803F48031226A914227
:10188C0011D103F47013626A93420ED1002006E06A
:10189C0001207047012002E0012000E0002002B08E
:1018AC0070BD0120FBE70120F9E70120F7E700BF3D
:1018BC00001002406000424286B0164B0FCB0DF177
:1018CC00180C0CE90F0040F20123ADF80430124B58
:1018DC005B6803F00C02082A02D0104806B070476F
:1018EC00C3F38342624412F8102C13F4803F0CD0E3
:1018FC00094B5B68C3F34043634413F8143C07483B
:10190C0000FB02F0B0FBF3F0E8E7054800FB02F047
:10191C00E4E700BFD02D00080010024000127A004E
:10192C0000093D00002800F0A08070B50D4604466B
:10193C00524B1B6803F007038B420BD24F4A1368C0
:10194C0023F007030B431360136803F007038B4268
:10195C0040F08D80236813F0020F17D013F0040FA2
:10196C0004D0474A536843F4E0635360236813F090
:10197C00080F04D0424A536843F460535360404A02
:10198C00536823F0F003A1680B435360236813F0F2
:10199C00010F31D06368012B20D0022B25D0384A9F
:1019AC00126812F0020F64D035494A6822F0030223
:1019BC0013434B60FFF7D6F80646314B5B6803F0D8
:1019CC000C036268B3EB820F16D0FFF7CBF8801BC9
:1019DC0041F288339842F0D9032045E0284A126836
:1019EC0012F4003FE0D101203EE0254A126812F0CB
:1019FC00007FD9D1012037E0204B1B6803F007038F
:101A0C00AB420AD91D4A136823F007032B4313601A
:101A1C00136803F00703AB422DD1236813F0040FB6
:101A2C0006D0174A536823F4E063E1680B43536014
:101A3C00236813F0080F07D0114A536823F460533E
:101A4C00216943EAC1035360FFF736FF0C4B5B6817
:101A5C00C3F303130B4AD35CD8400B4B18600B4BEE
:101A6C001868FFF73BF8002070BD0120704701207B
:101A7C00FAE70120F8E70120F6E700BF002002405A
:101A8C0000100240B82D00081C000020240000208B
:101A9C00014B1868704700BF1C00002008B5FFF709
:101AAC00F7FF044B5B68C3F30223034AD35CD840B3
:101ABC0008BD00BF00100240C82D000870B4036AB6
:101ACC0023F001030362036A4668826922F0730201
:101ADC000C6844EA020523F002028B6813430D4C98
:101AEC00A04209D00B4CA0420DD0466085614A68DB
:101AFC004263036270BC704723F00803CA68134347
:101B0C0023F00403EEE726F440764A6932438E69EB
:101B1C001643EAE7002C014030B4036A23F48073C7
:101B2C000362036A4568C26922F073020C6822439F
:101B3C0023F400738C6843EA04230F4CA04209D0B1
:101B4C000D4CA0420ED04560C2614A68C26303626C
:101B5C0030BC704723F40063CC6843EA042323F4BD
:101B6C008063EDE725F440554C6945EA04158C6912
:101B7C0045EA0415E7E700BF002C014030B4036AC6
:101B8C0023F480530362036A4468C26922F4E64278
:101B9C000D6842EA052223F400538D6843EA0533AD
:101BAC00074DA84206D04460C2614A6802640362D1
:101BBC0030BC704724F480444D6944EA8514F2E744
:101BCC00002C014030B4036A056A25F0010505625A
:101BDC00846924F0F00444EA021423F00A030B4352
:101BEC008461036230BC704730B4056A25F010057F
:101BFC0005628469036A24F4704444EA023423F0D5
:101C0C00A00343EA01138461036230BC704783680C
:101C1C0023F070030B4343F007038360704700000D
:101C2C0090F83D30DBB2012B22D1022380F83D30FD
:101C3C000368114A934210D0B3F1804F0DD0A2F536
:101C4C009432934209D002F58062934205D01A680F
:101C5C0042F001021A60002070479A6802F00702F5
:101C6C00062A07D01A6842F001021A600020704759
:101C7C000120704700207047002C01400368196A4E
:101C8C0041F21112114208D1196A40F24442114238
:101C9C0003D11A6822F001021A60012380F83D304A
:101CAC00002070477047000003681B4A90420AD01E
:101CBC00B0F1804F07D0A2F59432904203D002F5D8
:101CCC008062904203D123F070034A681343124A96
:101CDC0090420AD0B0F1804F07D0A2F594329042D6
:101CEC0003D002F58062904203D123F44073CA689A
:101CFC00134323F080034A69134303608B68C36268
:101D0C000B688362044B984202D0012343617047F5
:101D1C000B690363F9E700BF002C014040B310B519
:101D2C00044690F83D30F3B1022384F83D3021464F
:101D3C0051F8040BFFF7B8FF012384F8463084F800
:101D4C003E3084F83F3084F8403084F8413084F8D9
:101D5C00423084F8433084F8443084F8453084F8B9
:101D6C003D30002010BD80F83C30FEF711FEDBE763
:101D7C000120704740B310B5044690F83D30F3B1E4
:101D8C00022384F83D30214651F8040BFFF78CFFF9
:101D9C00012384F8463084F83E3084F83F3084F8D0
:101DAC00403084F8413084F8423084F8433084F871
:101DBC00443084F8453084F83D30002010BD80F864
:101DCC003C30FFF76FFFDBE70120704730B4036A4C
:101DDC0023F010030362036A4468826922F4E6422A
:101DEC000D6842EA052223F020038D6843EA0513AF
:101DFC000E4DA84209D00D4DA8420ED04460826110
:101E0C004A688263036230BC704723F08003CD685C
:101E1C0043EA051323F04003EDE724F440644D69D5
:101E2C0044EA85048D6944EA8504E7E7002C014007
:101E3C0038B590F83C30012B60D004460D46012398
:101E4C0080F83C300C2A1AD8DFE802F0071919196F
:101E5C001D1919193119191944000068FFF72EFEC4
:101E6C002268936943F0080393612268936923F015
:101E7C00040393612268936929690B4393610020E1
:101E8C0084F83C0038BD0068FFF7A0FF2268936916
:101E9C0043F4006393612268936923F48063936134
:101EAC0022689369296943EA01239361E7E7006893
:101EBC00FFF732FE2268D36943F00803D36122682E
:101ECC00D36923F00403D3612268D36929690B43D6
:101EDC00D361D4E70068FFF751FE2268D36943F45D
:101EEC000063D3612268D36923F48063D3612268D1
:101EFC00D369296943EA0123D361C0E70220C1E712
:101F0C0010B4846824F47F4442EA03220A43224337
:101F1C00826010BC704790F83C30012B66D010B535
:101F2C000446012380F83C30022380F83D300268DF
:101F3C00936823F47F4323F0770393600B68602B43
:101F4C0040D022D8402B47D00BD9502B0ED1CA6889
:101F5C0049680068FFF736FE50212068FFF757FEEE
:101F6C0004E0202B0CD008D9302B09D0012384F8A5
:101F7C003D30002084F83C0010BD0BB1102BF5D186
:101F8C0019462068FFF743FEF0E7702B0ED0B3F52F
:101F9C00005FEBD1CB684A6889680068FFF7B0FF37
:101FAC002268936843F480439360DFE7CB684A6808
:101FBC0089680068FFF7A4FF2268936843F07703F1
:101FCC009360D3E7CA6849680068FFF70DFE60218B
:101FDC002068FFF71CFEC9E7CA6849680068FFF76C
:101FEC00F1FD40212068FFF712FEBFE70220704789
:101FFC0010B401F01F01012303FA01F4036A23EA70
:10200C0004030362036A02FA01F10B43036210BC7E
:10201C007047000010B50446084651BB94F83E309A
:10202C00DBB2013B18BF0123002B5BD1002839D157
:10203C00022384F83E30012201462068FFF7D8FFC6
:10204C0023682A4A93423DD02368284A93423ED0C3
:10205C00B3F1804F3BD0A2F59432934237D002F5C6
:10206C008062934233D01A6842F001021A60002059
:10207C0039E0042908D008290DD094F84130DBB29E
:10208C00013B18BF0123CFE794F83F30DBB2013B93
:10209C0018BF0123C8E794F84030DBB2013B18BFEE
:1020AC000123C1E7042805D0082807D0022384F8AF
:1020BC004130C0E7022384F83F30BCE7022384F8A8
:1020CC004030B8E75A6C42F400425A64BCE79A6854
:1020DC0002F00702062A07D01A6842F001021A60C1
:1020EC00002000E0012010BD0020FCE7002C014086
:1020FC0090F83C30012B2BD030B4012380F83C30CD
:10210C00022380F83D3003685C689D6824F07004FD
:10211C000A6822435A6003680E4A93420AD0B3F10C
:10212C00804F07D0A2F59432934203D002F580621F
:10213C00934204D125F080054A6815439D60012324
:10214C0080F83D30002380F83C30184630BC704796
:10215C0002207047002C01400C480D490D4A002309
:10216C0002E0D458C4500433C4188C42F9D30A4A40
:10217C000A4C002301E013600432A242FBD3FEF7A9
:10218C00CDFB00F00FF8FEF7E9F9704700000020D6
:10219C0054040020F42D0008540400208405002071
:1021AC00FEE7000070B50D4E0D4D761BB61006D037
:1021BC00002455F8043B01349847A642F9D1094E46
:1021CC00094D00F083F8761BB61006D0002455F8A4
:1021DC00043B01349847A642F9D170BDE82D0008A4
:1021EC00E82D0008F02D0008E82D0008024B13B173
:1021FC00024800F005B870470000000019220008E2
:10220C00002301461A46184600F01AB838B5084B98
:10221C00084D5B1B9C1007D0043B1D44013C55F83A
:10222C0004399847002CF9D1BDE8384000F054B877
:10223C00F42D0008F02D0008704700BF704700BF58
:10224C002DE9F047DFF880A00646DAF80000984642
:10225C000F469146FFF7F0FF1A4B1B68D3F8484125
:10226C0024B365681F2D26DC5EB96B1C0235DAF8C9
:10227C000000636044F82570FFF7E0FF0020BDE824
:10228C00F087012304EB8501C1F88890D4F88821EC
:10229C00AB401A43022EC4F88821C1F80881E4D15E
:1022AC00D4F88C211343C4F88C31DEE703F5A67403
:1022BC00C3F84841D5E7DAF80000FFF7BFFF4FF04D
:1022CC00FF30DCE7E42D000850040020F8B500BF17
:1022DC00F8BC08BC9E467047F8B500BFF8BC08BCFB
:0422EC009E46704753
:1022F0000000000000000000002F000000000700A8
:10230000070000147F147F1400242A7F2A12006221
:1023100064081323003649552250000005030000CD
:1023200000001C224100000041221C000014083E55
:1023300008140008083E0808000000A0600000081B
:10234000080808080000606000000020100804026F
:10235000003E5149453E0000427F4000004261512D
:102360004946002141454B31001814127F100027C7
:1023700045454539003C4A4949300001710905038A
:1023800000364949493600064949291E00003636BB
:10239000000000005636000000081422410000141E
:1023A00014141414000041221408000201510906FB
:1023B00000324959513E007C1211127C007F49497C
:1023C0004936003E41414122007F4141221C007FAD
:1023D00049494941007F09090901003E4149497ABB
:1023E000007F0808087F0000417F41000020404135
:1023F0003F01007F08142241007F40404040007FA1
:10240000020C027F007F0408107F003E4141413EE4
:10241000007F09090906003E4151215E007F09192C
:1024200029460046494949310001017F0101003F29
:102430004040403F001F2040201F003F4038403FA9
:10244000006314081463000708700807006151490D
:10245000454300007F41410000552A552A550000A0
:1024600041417F000004020102040040404040401E
:10247000000001020400002054545478007F4844B6
:10248000443800384444442000384444487F0038ED
:102490005454541800087E0901020018A4A4A47C16
:1024A000007F080404780000447D400000408084E0
:1024B0007D00007F102844000000417F4000007C28
:1024C00004180478007C0804047800384444443834
:1024D00000FC242424180018242418FC007C080480
:1024E000040800485454542000043F444020003C59
:1024F0004040207C001C2040201C003C4030403CE0
:10250000004428102844001CA0A0A07C004464546F
:102510004C441414141414140000000000000000B3
:102520000000000000000000000000F800000000B3
:10253000000000333000000000100C06100C0600F4
:10254000000000000000000040C07840C07840005B
:10255000043F04043F040400007088FC08300000BD
:10256000001820FF211E0000F008F000E018000015
:1025700000211C031E211E0000F0088870000000CE
:102580001E2123241927211010160E000000000020
:102590000000000000000000000000E0180402003D
:1025A000000000071820400000020418E0000000AE
:1025B0000040201807000000404080F080404000AC
:1025C0000202010F01020200000000F00000000002
:1025D0000101011F010101000000000000000000D6
:1025E00080B070000000000000000000000000004B
:1025F00000010101010101010000000000000000D4
:10260000003030000000000000000000806018046E
:10261000006018060100000000E010080810E0004B
:10262000000F102020100F00001010F80000000014
:102630000020203F2020000000700808088870005B
:1026400000302824222130000030088888483000DB
:102650000018202020110E000000C02010F80000FB
:1026600000070424243F240000F808888808080094
:102670000019212020110E0000E0108888180000A9
:10268000000F112020110E0000380808C83808007B
:102690000000003F000000000070880808887000FB
:1026A000001C222121221C0000E010080810E0007C
:1026B0000000312222110F00000000C0C000000005
:1026C000000000303000000000000080000000002A
:1026D0000000806000000000000080402010080022
:1026E00000010204081020004040404040404000EB
:1026F00004040404040404000008102040800000C6
:102700000020100804020100007048080808F000CA
:102710000000003036010000C030C828E810E0009A
:102720000718272423140B000000C038E000000025
:10273000203C23020227382008F88888887000008F
:10274000203F202020110E00C03008080808380063
:10275000071820202010080008F808080810E000DA
:10276000203F202020100F0008F88888E80810007B
:10277000203F20202320180008F88888E80810004F
:10278000203F200003000000C03008080838000087
:1027900007182020221E020008F808000008F80888
:1027A000203F210101213F20000808F8080800000F
:1027B0000020203F2020000000000808F808080042
:1027C000C08080807F00000008F888C028180800BA
:1027D000203F20012638200008F8080000000000F3
:1027E000203F20202020300008F8F800F8F80800EA
:1027F000203F003F003F200008F830C00008F808E4
:10280000203F200007183F00E01008080810E000F3
:102810000F10202020100F0008F808080808F0000A
:10282000203F210101010000E01008080810E0002D
:102830000F18242438504F0008F8888888887000C2
:10284000203F2000030C3020007088080808380062
:102850000038202121221C00180808F80808180058
:102860000000203F2000000008F808000008F808D9
:10287000001F202020201F000878880000C838088A
:10288000000007380E010000F80800F80008F80002
:10289000033C0700073C030008186880806818089C
:1028A00020302C03032C30200838C800C83808001A
:1028B0000000203F2000000010080808C838080069
:1028C0002038262120201800000000FE020202000D
:1028D0000000007F40404000000C30C000000000BD
:1028E000000000010638C00000020202FE000000E5
:1028F000004040407F00000000000402020204008B
:1029000000000000000000000000000000000000C7
:1029100080808080808080800002020400000000AF
:1029200000000000000000000000808080800000A7
:102930000019242222223F2008F800808000000095
:10294000003F112020110E00000000808080000058
:10295000000E112020201100000000808088F80067
:10296000000E112020103F20000080808080000099
:10297000001F222222221300008080F088888818FD
:102980000020203F20200000000080808080800008
:10299000006B94949493600008F80080808000009D
:1029A000203F210000203F20008098980000000078
:1029B0000020203F202000000000008098980000A8
:1029C00000C08080807F000008F8000080808000C8
:1029D000203F24022D302000000808F800000000ED
:1029E0000020203F202000008080808080808000A8
:1029F000203F20003F20003F80800080808000003A
:102A0000203F210000203F200000808080800000C7
:102A1000001F202020201F008080008080000000F8
:102A200080FFA12020110E00000000808080800027
:102A3000000E112020A0FF80808080008080800018
:102A400020203F2120000100000080808080800045
:102A50000033242424241900008080E080800000BA
:102A60000000001F20200000808000000080800007
:102A7000001F202020103F20808080000080808068
:102A800000010E30080601008080008000808080F8
:102A90000F300C030C300F0000808000808080001D
:102AA0000020312E0E312000808080000080808048
:102AB00080818E70180601000080808080808000F8
:102AC0000021302C2221300000000000807C020216
:102AD00000000000003F40400002027C8000000037
:102AE0000040403F0000000000000000FF00000028
:102AF00000000000FF0000000000FF888848480038
:102B00007F88848482E00000000000000000000054
:102B1000000000000000000004040504040404FF99
:102B20000404040404040400000000000000000089
:102B300000000000000000000010608000FF0000A6
:102B400000FF0000C0300000000000000000000096
:102B5000000000000000000040404043407F404033
:102B6000407F424140404000000000000000000063
:102B70000000000000000000404042CC0040A09E49
:102B80008282829EA0202000000000000000000041
:102B900000000000000000000000003F908840435B
:102BA0002C1028464180800000000000000000003A
:102BB0000000000000000000404042CC00404040C7
:102BC00040FF404040404000000000000000000086
:102BD00000000000000000000000007F2010000046
:102BE00000FF0000000000000000000000000000E6
:102BF0000000000000000000109453321E325210FA
:102C0000007E4242427E0000000000000000000002
:102C10000000000000000000000000FF4949494991
:102C2000494949FF000000000000000000000000CA
:102C3000000000000000000008CC4A49484ACC18B7
:102C4000007F88888482E00000000000000000000F
:102C5000000000000000000000FF121252927F00EE
:102C6000007E88888482E0000000000000000000F0
:102C70000000000000000000102C2424A4A465A67D
:102C800024242424A4340C000000000000000000D0
:102C90000000000000000000404949292414528926
:102CA0007F040A1110202000000000000000000036
:102CB00000000000000000000000FE92929292923C
:102CC000F29292929E8080000000000000000000BE
:102CD000000000000000000040300F00FC444444AD
:102CE00047444444FC0000000000000000000000D5
:102CF00000000000000000001060028C00FE9292B4
:102D000092929292FE00000000000000000000007D
:102D1000000000000000000004047E014448507FD1
:102D200040407F5048444000000000000000000088
:102D300000000000000000001060028C0000FE9205
:102D400092929292FE00000000000000000000003D
:102D5000000000000000000004047E01407E4242AA
:102D60007E427E42427E40000000000000000000E3
:102D700000000000000000000000FC242424FC25CA
:102D80002624FC242424040000000000000000008D
:102D9000000000000000000040308F80844C55256A
:102DA0002525554C808080000000000000000000B8
:102DB0000000000000000000000000000000000013
:102DC00001020304060708090000000001020304D1
:102DD00002030405060708090A0B0C0D0E0F10105C
:082DE0000000000028000020A3
:082DE800F92100083101000887
:042DF0000D010008C9
:102DF400AE001040B081FFA1A6A83FC8D300D58083
:102E0400D805D9F1DA12D8308D14AF000024F400BB
:102E14000100000010000000000000001403002066
:102E24007C030020E40300200000000000000000F8
:102E3400000000000000000000000000000000008E
:102E4400000000000000000000000000000000007E
:102E5400000000000000000000000000000000006E
:102E6400000000000000000000000000000000005E
:102E7400000000000000000000000000000000004E
:102E8400000000000000000000000000000000003E
:102E9400000000000000000000000000000000002E
:102EA400000000000000000000000000000000001E
:102EB400000000000000000000000000000000000E
:102EC40001000000000000000E33CDAB34126DE6AB
:102ED400ECDE05000B000000000000000000000014
:102EE40000000000000000000000000000000000DE
:102EF40000000000000000000000000000000000CE
:102F040000000000000000000000000000000000BD
:102F140000000000000000000000000000000000AD
:043244006005002001
:040000050800216569
:00000001FF
